:04000000FEEF3FF0E0
:1008000000103070F0080C0E0F000A6A050EF66E2C
:100810000900F5CF02F00900F5CF03F00900F5CF8C
:1008200004F00A00F5CF05F0010EF66E0900F5CFD1
:1008300006F00900F5CF07F00900F5CF08F00A002F
:10084000F5CF09F0060E936E956A0F0EC16EF19EFC
:100850008C6A81B22EEF04F030EF04F056EF04F012
:100860000B6A0B50020FD96EDA6ADF508C6E42EFC2
:1008700004F0410E016EEE0EE82EFED7012EFCD7DD
:1008800000D00A2A310E0A6448EF04F04AEF04F05F
:1008900039EF04F00A6A0B2A030E0B6452EF04F0DE
:1008A00054EF04F031EF04F028EF04F081B45BEF73
:1008B00004F05DEF04F028EF04F00B6A0B50060F14
:1008C000D96EDA6ADF508C6E6FEF04F0410E016E64
:1008D000EE0EE82EFED7012EFCD700D00A2A310EEC
:1008E0000A6475EF04F077EF04F066EF04F00A6A2B
:1008F0000B2A030E0B647FEF04F081EF04F05EEF30
:1009000004F028EF04F0FEEF3FF0000EF86E080E42
:08091000F76E000105EF04F091
:047FFC0085EF04F019
:020000040020DA
:08000000FFFFFFFFFFFFFFFF00
:020000040030CA
:0E000000000C1F1EFF8181FF0FC00FE00F409C
:00000001FF
