:0400000007EF00F016
:0A000800018240ED07F0FBEF08F065
:100800000054656D703A000D0A0043200025750004
:0108100000E7
:10081200010E926E060E936E240EAC6E800EAB6EBF
:10082200810EAF6E9492010EC26E0E0EC16EBD0E9F
:10083200C06EC70ECB6E050ECA6E0C0EBA6EF08677
:10084200F088F090F092F18AF188D08EF28EF28CDC
:10085200280E02EC06F0010EBEEC08F0680E286EBF
:10086200E40EE82EFED7282EFCD700D05DC002F0A1
:100872005EC003F013EC08F0C282C2B243EF04F090
:1008820045EF04F03EEF04F0C350C4CF28F0296ACC
:1008920028C029F0286A2810346E2950356E34C0D9
:1008A20002F035C003F0046A056A880E066E130E64
:1008B200076E000E086E000E096E77EC07F002C09C
:1008C2000EF003C00FF004C010F005C011F0FF0ECF
:1008D200126E030E136E000E146E000E156E7DEC7A
:1008E20005F00EC030F00FC031F010C032F011C070
:1008F20033F030C00EF031C00FF032C010F033C010
:1009020011F00A0E126E000E136E000E146E000E1F
:10091200156E7DEC05F00EC036F00FC037F02A0ED2
:10092200186E0D0E196E36C01AF037C01BF014EC9B
:1009320009F0800EBEEC08F0010E036E0350D8A43D
:10094200080E046E07EC07F02A0E036E046A07EC29
:1009520007F00A0E036E38EC08F02A0E026E036AE4
:10096200ACEC07F0070E026E0250D8A4080E036E1C
:10097200ACEC07F00D0E296EAF0E286EB60EE82E07
:10098200FED7282EFCD7292EFAD700D037EF04F055
:1009920007EF00F00B50D96EDA6ADFCFF6FF080ED0
:1009A200F76E0800F550250AD8A4DAEF04F0DCEF60
:1009B20004F06BEF05F00B50D96EDA6ADF2A596A40
:1009C200000E586E58C05CF05A685B680B50D96EC6
:1009D200DA6ADF50126E12C0F6FF080EF76E0800D8
:1009E200F550750AD8A4F8EF04F0FAEF04F065EFB9
:1009F20005F00C50D96EDA6A020EDF26DF5CD96E82
:100A0200DA6ADECF0EF0DECF0FF00B50D96EDA6A63
:100A12001228DF6E59EF05F0200E136E13061350E5
:100A2200380FD96EDA6A0EC002F00FC003F0056A01
:100A32000A0E046EE1EC07F00250300FDF6E0EC0BA
:100A420002F00FC003F0056A0A0E046ECEEC06F047
:100A520002C00EF003C00FF00E500F10D8B434EFE6
:100A620005F036EF05F04EEF05F01350D8A43CEF39
:100A720005F03EEF05F00FEF05F04EEF05F01350D5
:100A8200380FD96EDA6ADF500D6E0D50026E036AAE
:100A92000AC004F079EC06F0132A200E1318D8A429
:100AA20055EF05F057EF05F040EF05F07CEF05F04C
:100AB20012C0F6FF080EF76E0800F550750AD8B49A
:100AC2000DEF05F065EF05F00B50D96EDA6ADF2AFB
:100AD2007CEF05F00B50D96EDA6ADFCFF6FF080E15
:100AE200F76E0800F550026E036A0AC004F079EC52
:100AF20006F065EF05F01200176A15BE85EF05F0E6
:100B020083EF05F08FEF05F0151E141E131E126CF5
:100B1200000E132214221522010E176E11BE96EF3B
:100B220005F094EF05F0A0EF05F0111E101E0F1E48
:100B32000E6C000E0F2210221122010E171A000E47
:100B4200186E000E196E000E1A6E000E1B6E1250F9
:100B5200131014101510D8B4B1EF05F0B3EF05F06F
:100B6200E9EF05F0010E166EBDEF05F0D8901236D2
:100B7200133614361536162A15AEC2EF05F0C4EF39
:100B820005F0B7EF05F0D890183619361A361B362D
:100B920012500E5C13500F58145010581550115823
:100BA200D8A0D6EF05F0D8EF05F0E1EF05F012502E
:100BB2000E5E13500F5A1450105A1550115A1880C5
:100BC200D8901532143213321232162EC4EF05F0B9
:100BD2001750D8B4EFEF05F0F1EF05F0F9EF05F09B
:100BE2001B1E1A1E191E186C000E19221A221B2215
:100BF20018C00EF019C00FF01AC010F01BC011F08F
:100C02001200036E0F0E83160F0E95169694969091
:100C120096928D948D908D9235EC09F0300EBEEC4B
:100C220008F02CEC09F02CEC09F0300EBEEC08F0C8
:100C32002CEC09F02CEC09F0320EBEEC08F05CEC66
:100C420008F00009D8A428EF06F02AEF06F020EFFA
:100C520006F05CEC08F00009D8A432EF06F034EF9D
:100C620006F02AEF06F00350BEEC08F05CEC08F048
:100C72000009D8A43FEF06F041EF06F037EF06F087
:100C8200080EBEEC08F05CEC08F00009D8A44CEFAA
:100C920006F04EEF06F044EF06F00F0EBEEC08F041
:100CA2005CEC08F00009D8A459EF06F05BEF06F0FF
:100CB20051EF06F0010EBEEC08F05CEC08F0000902
:100CC200D8A466EF06F068EF06F05EEF06F0040EB9
:100CD200BEEC08F05CEC08F00009D8A473EF06F053
:100CE20075EF06F06BEF06F0800E7FEC08F0120055
:100CF2000450D8B47FEF06F081EF06F089EF06F0DA
:100D02000450D8A487EF06F089EF06F08EEF06F0C4
:100D1200025043EC09F0CDEF06F00450D96EDA6AC6
:100D2200090ED926DE50DE10D8B49AEF06F09CEFF9
:100D320006F0B5EF06F00450D96EDA6A090ED9262C
:100D42000450E16EE26A020EE126DE50E65CE650F5
:100D5200800A096EDE50800A0958D8B0B3EF06F057
:100D6200B5EF06F0CDEF06F00450D96EDA6A020E46
:100D7200D926DF50056E0450D96EDA6ADF50052499
:100D8200D96EDA6A02C0DFFF0450D96EDA6A020E47
:100D9200D926DE2A000EDD221200076A000E066E38
:100DA20004500510D8B4D8EF06F0DAEF06F002EFDF
:100DB20007F0010E086EE2EF06F0D8900436053611
:100DC200082A05AEE7EF06F0E9EF06F0DEEF06F0DF
:100DD200D890063607360450025C05500358D8A056
:100DE200F5EF06F0F7EF06F0FCEF06F00450025EB6
:100DF2000550035A0680D89005320432082EE9EFD6
:100E020006F006C002F007C003F0120027EF07F059
:100E12005CEC08F00009D8A411EF07F013EF07F01B
:100E220009EF07F003C0F6FF04C0F7FFF86A070EE8
:100E3200F76403D00800F55005D0F6CFE1FFF7CFF5
:100E4200E2FFE7509FEC08F0034A042A03C0F6FFD2
:100E520004C0F7FFF86A070EF76403D00800F550E4
:100E620005D0F6CFE1FFF7CFE2FFE7500009D8A4A3
:100E72003DEF07F03FEF07F009EF07F01200060021
:100E8200F0A046EF07F048EF07F059EF07F0330EF6
:100E92005D26000E5E22040E5E5CD8A053EF07F0C2
:100EA20055EF07F058EF07F0030E5E6E5D68F090A5
:100EB200F0A25EEF07F060EF07F075EF07F05E500B
:100EC20009E1340E5D5CD8A069EF07F06BEF07F023
:100ED20071EF07F0330E5D5E000E5E5A74EF07F09D
:100EE2005E6A000E5D6EF09201921100000E0A6EB3
:100EF200000E0B6E000E0C6E000E0D6E02A084EF43
:100F020007F086EF07F08EEF07F006500A2607502B
:100F12000B2208500C2209500D22D89006360736B3
:100F220008360936D89005320432033202320250B2
:100F3200031004100510D8A4A1EF07F0A3EF07F0E7
:100F42007FEF07F00AC002F00BC003F00CC004F000
:100F52000DC005F01200C8EF07F09EA8B3EF07F02E
:100F6200B5EF07F0AEEF07F002C0F6FF03C0F7FFE0
:100F7200F86A070EF76403D00800F55005D0F6CFE3
:100F8200E1FFF7CFE2FFE750AD6E024A032A02C04B
:100F9200F6FF03C0F7FFF86A070EF76403D00800F4
:100FA200F55005D0F6CFE1FFF7CFE2FFE750000999
:100FB200D8A4DEEF07F0E0EF07F0AEEF07F0120083
:100FC20004500510D8B4E8EF07F0EAEF07F00EEF8F
:100FD20008F0010E066EF2EF07F0D89004360536DF
:100FE200062A05AEF7EF07F0F9EF07F0EEEF07F08C
:100FF2000450025C05500358D8A002EF08F004EF39
:1010020008F008EF08F00450025E0550035AD89029
:1010120005320432062EF9EF07F002C002F003C0D7
:1010220003F0120002C004F003C005F0D8900532AC
:101032000432D890053204320450BB6ED89003308B
:10104200056E0230046E010E0416043A0446BA50CC
:101052000418DF0B0418BA6E02C004F0010E041665
:10106200043ABA500418EF0B0418BA6E12004DEF8E
:1010720008F05CEC08F00009D8A442EF08F044EF55
:1010820008F03AEF08F003C0F6FF080EF76E08000A
:10109200F5509FEC08F0032A03C0F6FF080EF76E26
:1010A2000800F5500009D8A459EF08F05BEF08F0EA
:1010B2003AEF08F012008D848D903DEC09F08D829C
:1010C2003DEC09F083AE68EF08F06AEF08F075EFC7
:1010D20008F08D923DEC09F08D823DEC09F08D9285
:1010E2008D94010E7EEF08F08D923DEC09F08D8219
:1010F2003DEC09F08D928D94000E1200026E0F0EDF
:1011020095160F0E831602508009F00B83128D94F0
:101112008D903DEC09F08D823DEC09F08D920F0E21
:1011220083160238F00BF00B83123DEC09F08D822E
:101132003DEC09F08D92F00E95121200026E0F0E28
:1011420095160F0E83160250F00B83128D808D942C
:101152003DEC09F08D823DEC09F08D920F0E831665
:101162000238F00BF00B83123DEC09F08D823DEC5E
:1011720009F08D92F00E95121200026E0F0E951666
:101182000F0E83160250F00B83128D948D903DEC5E
:1011920009F08D823DEC09F08D920F0E8316023814
:1011A200F00BF00B83123DEC09F08D823DEC09F05F
:1011B2008D92F00E9512120015C017F0E9EF08F0AB
:1011C20014C00AF0170E0B6E16C00CF0CBEC04F034
:1011D20017C0F6FF080EF76E0800F5500009D8A4F4
:1011E200F5EF08F0F7EF08F0E1EF08F0156A000EEE
:1011F200146E1200840EF66E120EF76E000EF86E6A
:101202000900F5CF5DF00900F5CF5EF000EE38F091
:10121200250EEE6AE806FDE101900192000EF86EDD
:10122200000109EF04F01A0E1C6E18C01DF0206AAE
:10123200000E1F6E276A000E266E1D0E146E19C058
:1012420015F01C0E166EDDEC08F018501F24D96E36
:10125200DA6ADF6A1200210E026E760EE82EFED7DF
:10126200022EFCD700D01200620E026E660EE82E2D
:10127200FED7022EFCD71200210EE82EFED7000068
:0612820012000002120040
:020000040020DA
:08000000FFFFFFFFFFFFFFFF00
:020000040030CA
:0E000000000C1F1EFF8181FF0FC00FE00F409C
:00000001FF
