:0400000013EF00F00A
:060008000182C6ED04F0C8
:100018000180E0CF03F003C0E0FF01901000A4EFDF
:0200280005F0E1
:100800000047657261646F722043435031004F6E40
:0B08100064612034343020487A00007E
:10081C00056E0F0E83160F0E951696949690969263
:10082C008D948D908D92B7EC05F0300E85EC05F023
:10083C00AEEC05F0AEEC05F0300E85EC05F0AEEC50
:10084C0005F0AEEC05F0320E85EC05F003EC05F08E
:10085C000009D8A434EF04F036EF04F02CEF04F0C8
:10086C0003EC05F00009D8A43EEF04F040EF04F0CF
:10087C0036EF04F0055085EC05F003EC05F00009AB
:10088C00D8A44BEF04F04DEF04F043EF04F0080E46
:10089C0085EC05F003EC05F00009D8A458EF04F042
:1008AC005AEF04F050EF04F00F0E85EC05F003EC5A
:1008BC0005F00009D8A465EF04F067EF04F05DEFD4
:1008CC0004F0010E85EC05F003EC05F00009D8A44A
:1008DC0072EF04F074EF04F06AEF04F0040E85EC90
:1008EC0005F003EC05F00009D8A47FEF04F081EFCC
:1008FC0004F077EF04F0800E46EC05F01200966AD7
:10090C00956A94940F0EC16EB50ECD6ECF6ACE6AF9
:10091C00B196B19C0B0EBD6E020EBF6EC60EBE6EB6
:10092C009D849F84D08EF28CF28E870ED56ED90E5C
:10093C00D76EDB0ED66EF28AF294D08EF28CF28EDB
:10094C00280E0EEC04F0010E85EC05F0680E066E18
:10095C00E40EE82EFED7062EFCD700D0800E85ECD8
:10096C0005F0010E056E26EC05F0C00E85EC05F0C9
:10097C000E0E056E26EC05F0C2EF04F013EF00F03E
:10098C0006009EA4CCEF04F0CEEF04F0E0EF04F0F0
:10099C009E948BA4D4EF04F0D8EF04F0026A022AE0
:1009AC00D9EF04F0026A024602468B500218FB0B88
:1009BC0002188B6EF2A4E5EF04F0E7EF04F001EF00
:1009CC0005F0F294D90ED76EDB0ED66E0750D8A474
:1009DC00F2EF04F0F4EF04F0FCEF04F0010EBF6E44
:1009EC00630EBE6E010E076E01EF05F0020EBF6EB8
:1009FC00C60EBE6E076A019211008D848D90BFECFD
:100A0C0005F08D82BFEC05F083AE0FEF05F011EF12
:100A1C0005F01CEF05F08D92BFEC05F08D82BFEC5C
:100A2C0005F08D928D94010E25EF05F08D92BFECA3
:100A3C0005F08D82BFEC05F08D928D94000E1200A6
:100A4C0039EF05F003EC05F00009D8A430EF05F000
:100A5C0032EF05F028EF05F005C0F6FF0800F55061
:100A6C0066EC05F0052A05C0F6FF0800F5500009F4
:100A7C00D8A443EF05F045EF05F028EF05F0120080
:100A8C00046E0F0E95160F0E831604508009F00B92
:100A9C0083128D948D90BFEC05F08D82BFEC05F028
:100AAC008D920F0E83160438F00BF00B8312BFECF3
:100ABC0005F08D82BFEC05F08D92F00E95121200B0
:100ACC00046E0F0E95160F0E83160450F00B831246
:100ADC008D808D94BFEC05F08D82BFEC05F08D926E
:100AEC000F0E83160438F00BF00B8312BFEC05F0DD
:100AFC008D82BFEC05F08D92F00E95121200046EF3
:100B0C000F0E95160F0E83160450F00B83128D9456
:100B1C008D90BFEC05F08D82BFEC05F08D920F0E21
:100B2C0083160438F00BF00B8312BFEC05F08D82AA
:100B3C00BFEC05F08D92F00E95121200076A019031
:100B4C000192000EF86E080EF76E000185EF04F0AE
:100B5C00210E046E760EE82EFED7042EFCD700D0A4
:100B6C001200620E046E660EE82EFED7042EFCD721
:0C0B7C001200210EE82EFED7000012002F
:020000040020DA
:08000000FFFFFFFFFFFFFFFF00
:020000040030CA
:0E000000000C1F1EFF8181FF0FC00FE00F409C
:00000001FF
