:04000000FEEF3FF0E0
:100800000000060E936E956A926A0F0EC16EF19EFD
:100810008C6A81B20EEF04F010EF04F040EF04F0A8
:10082000066A030E066417EF04F019EF04F01BEFDD
:1008300004F039EF04F006C003F0040E046E000E5D
:10084000056E032A27EF04F0053405320432032E27
:1008500024EF04F0045008098C6E78EC04F0062AAA
:1008600011EF04F00F0E8C6E78EC04F08C6A78ECCB
:1008700004F081A23EEF04F040EF04F032EF04F008
:1008800081B445EF04F047EF04F008EF04F0066A86
:10089000030E06644EEF04F050EF04F052EF04F044
:1008A0006DEF04F006C003F0200E046E032A5BEF28
:1008B00004F0D8900436032E59EF04F004501009C8
:1008C0008C6E78EC04F0062A48EF04F0F00E8C6E83
:1008D00078EC04F08C6A78EC04F081A472EF04F0F8
:1008E00074EF04F066EF04F008EF04F0FEEF3FF061
:1008F0000D0E026EAF0E016EB60EE82EFED7012E63
:10090000FCD7022EFAD700D01200000101EF04F04C
:047FFC0085EF04F019
:020000040020DA
:08000000FFFFFFFFFFFFFFFF00
:020000040030CA
:0E000000000C1F1EFF8181FF0FC00FE00F409C
:00000001FF
