:0400000077EF00F0A6
:060008003A827FED04F0D6
:100018003A80D8CF21F0E8CF22F0E0CF23F0FACF12
:1000280024F0FBCF25F0E9CF26F0EACF27F0E1CF87
:1000380028F0E2CF29F0D9CF2AF0DACF2BF0F3CF8E
:100048002CF0F4CF2DF0F6CF2EF0F7CF2FF0F8CF1D
:1000580030F0F5CF31F03AC032F03BC033F03CC05D
:1000680034F03DC035F0F0A009D0362A050E361818
:10007800D8A402D0010E366EF09009D0F0A207D0B5
:1000880036063650D8A402D0040E366EF09235C02B
:100098003DF034C03CF033C03BF032C03AF031C0E0
:1000A800F5FF30C0F8FF2FC0F7FF2EC0F6FF2DC0B8
:1000B800F4FF2CC0F3FF2BC0DAFF2AC0D9FF29C0F8
:1000C800E2FF28C0E1FF27C0EAFF26C0E9FF25C0FC
:1000D800FBFF24C0FAFF23C0E0FF22C0E8FF21C0D5
:0A00E800D8FF3A9010001FEF09F056
:10080000004C494741444120202020202020202026
:10081000200050415241444F202020202020202001
:1008200020200042757A7A65723A2020202020200C
:10083000202020004C616D706164613A20202020EE
:10084000202020200052656C6F67696F3A202020BD
:100850002020202020004445534C4947414441205A
:1008600020202020202000544F43414E444F2E2E64
:100870002E202020202020004D6F646F20536C65B7
:10088000657020202020202000312F302062757AD2
:100890007A657220202020202000312F30206CE249
:1008A0006D70616461202020202000416A7573749E
:1008B0006120686F72E172696F202000456E74726A
:1008C0006120656D20736C6565702020004F70633A
:1008D0006F657320646F204D656E753A00414A550F
:1008E000535445202020202020004E4F524D414C93
:1008F00020202020202000486F7261200000060088
:10090000FACF0CF0FBCF0DF0E9CF0EF0EACF0FF0ED
:10091000E1CF10F0E2CF11F0D9CF12F0DACF13F01F
:10092000F3CF14F0F4CF15F0F6CF16F0F7CF17F0A1
:10093000F8CF18F0F5CF19F03AC01AF03BC01BF011
:100940003CC01CF03DC01DF05AD1010E56EC08F021
:100950000D0E0A6EFC0EE82EFED70A2EFCD70C0EEA
:1009600056EC08F0F292800E56EC08F0450E026E3E
:10097000080E036E05EC09F0C00E56EC08F0395075
:10098000CEEC08F03A0E75EC08F03850CEEC08F0DA
:100990003A0E75EC08F03750CEEC08F00F0E026EF0
:1009A000080E036E05EC09F0000E206E630E206445
:1009B00001D00BD0410E0A6EEE0EE82EFED70A2EA5
:1009C000FCD700D00400202AF1D7372A3C0E371874
:1009D000D8A403D0000E376E382A3C0E3818D8A49D
:1009E00003D0000E386E392A180E3918D8A4BBD798
:1009F000000E396EB8D78B72010E56EC08F00D0E52
:100A00000A6EFC0EE82EFED70A2EFCD7800E56EC9E
:100A100008F0340E026E080E036E05EC09F0C00EED
:100A200056EC08F08BA207D0010E026E080E036E82
:100A300005EC09F006D0560E026E080E036E05ECAA
:100A400009F0270E0B6E0D0E0A6E260EE82EFED74D
:100A50000A2EFCD70B2EFAD700D0010E56EC08F068
:100A60000D0E0A6EFC0EE82EFED70A2EFCD7800E65
:100A700056EC08F0CD0E026E080E036E05EC09F080
:100A80000C0E56EC08F0C8D0010E56EC08F00D0E16
:100A90000A6EFC0EE82EFED70A2EFCD7800E56EC0E
:100AA00008F0230E026E080E036E05EC09F0C00E6E
:100AB00056EC08F0670E026E080E036E05EC09F0A6
:100AC000000E1F6E000E1E6E22D08B84110E0A6E59
:100AD0003A0EE82EFED70A2EFCD700D08B94110ECA
:100AE0000A6E3A0EE82EFED70A2EFCD700D081B04F
:100AF0000CD0820E0A6EDE0EE82EFED70A2EFCD730
:100B000081B003D081B009D0FDD71E4A1F2A900EB4
:100B10001E5C010E1F58D8A0D8D78B94C00E56EC7F
:100B200008F0120E026E080E036E05EC09F01A0EA4
:100B30000B6E5E0E0A6E6E0EE82EFED70A2EFCD7E6
:100B40000B2EFAD700D0010E56EC08F00D0E0A6EEF
:100B5000FC0EE82EFED70A2EFCD7800E56EC08F0CD
:100B6000CD0E026E080E036E05EC09F00C0E56EC6D
:100B700008F052D0010E56EC08F00D0E0A6EFC0E75
:100B8000E82EFED70A2EFCD7800E56EC08F0780E21
:100B9000026E080E036E05EC09F00D0E0B6EAF0E23
:100BA0000A6EB60EE82EFED70A2EFCD70B2EFAD709
:100BB00000D08996898AF292F090F092030000F0BA
:100BC000F292F090F0928986899A280E01EC07F053
:100BD000010E56EC08F00D0E0A6EFC0EE82EFED744
:100BE0000A2EFCD7800E56EC08F0CD0E026E080ED1
:100BF000036E05EC09F00C0E56EC08F00DD03650E3
:100C0000010AD8B4A2D6030AD8B4F5D6010AD8B4DA
:100C10003BD7070AD8B4AED7F2921DC03DF01CC036
:100C20003CF01BC03BF01AC03AF019C0F5FF18C0E9
:100C3000F8FF17C0F7FF16C0F6FF15C0F4FF14C089
:100C4000F3FF13C0DAFF12C0D9FF11C0E2FF10C0DA
:100C5000E1FF0FC0EAFF0EC0E9FF0DC0FBFF0CC0B3
:100C6000FAFF3A9211000F0EC16E93809382938423
:100C7000929A929694929494F19ED08EF288F292E7
:100C8000F086F090F09CF088F092F09EF28CF28E5C
:100C9000280EABEC06F0010E14EC08F0680E000113
:100CA000636FE40EE82EFED7632FFCD700F0800EB2
:100CB00014EC08F0CD0E0001616F080E626FEAECD3
:100CC00008F00C0E14EC08F00400809A8086C00E28
:100CD00014EC08F020D0AB0E0001616F080E626FBB
:100CE000EAEC08F025D09A0E0001616F080E626FE1
:100CF000EAEC08F01DD0890E0001616F080E626FEA
:100D0000EAEC08F015D0BC0E0001616F080E626FAE
:100D1000EAEC08F00DD03650010AD8B4DCD7030A4B
:100D2000D8B4E1D7010AD8B4E6D7070AD8B4EBD7CC
:100D3000000E0001646F310E646501D0C5D7410E0D
:100D40000001636FEE0EE82EFED7632FFCD700F094
:100D50000001642BF0D70001616F0F0E83160F0E98
:100D600095169694969096928D948D908D9242ECD5
:100D700009F0300E14EC08F038EC09F038EC09F00A
:100D8000300E14EC08F038EC09F038EC09F0320EB3
:100D900014EC08F094EC08F00009D8A4FBD794EC0C
:100DA00008F00009D8A4FBD70001615114EC08F049
:100DB00094EC08F00009D8A4FBD7080E14EC08F056
:100DC00094EC08F00009D8A4FBD70F0E14EC08F03F
:100DD00094EC08F00009D8A4FBD7010E14EC08F03D
:100DE00094EC08F00009D8A4FBD7040E14EC08F02A
:100DF00094EC08F00009D8A4FBD7800ECFEC07F0E4
:100E00001200026E0F0E83160F0E95169694969092
:100E100096928D948D908D9255EC09F0300E56EC93
:100E200008F04CEC09F04CEC09F0300E56EC08F0F0
:100E30004CEC09F04CEC09F0320E56EC08F0B1EC39
:100E400008F00009D8A4FBD7B1EC08F00009D8A439
:100E5000FBD7025056EC08F0B1EC08F00009D8A41A
:100E6000FBD7080E56EC08F0B1EC08F00009D8A446
:100E7000FBD70F0E56EC08F0B1EC08F00009D8A42F
:100E8000FBD7010E56EC08F0B1EC08F00009D8A42D
:100E9000FBD7040E56EC08F0B1EC08F00009D8A41A
:100EA000FBD7800E36EC08F01200000E066E04AE82
:100EB00006D0036C041ED8B0042A010E066E02AEE2
:100EC00006D0016C021ED8B0022A010E061A000ECE
:100ED000086E000E076E03500410D8B41CD0010E2B
:100EE000056E04D0D89003360436052A04AEFAD72E
:100EF000D890073608360350015C04500258D8A039
:100F000005D00350015E0450025A0780D890043285
:100F10000332052EEDD70650D8B404D0076C081E56
:100F2000D8B0082A07C001F008C002F01200000E75
:100F3000066E02AE06D0016C021ED8B0022A010E67
:100F4000066E04AE04D0036C041ED8B0042A03500D
:100F50000410D8B418D0010E056E04D0D890033612
:100F60000436052A04AEFAD70350015C0450025837
:100F7000D8A004D00350015E0450025AD890043225
:100F80000332052EF1D70650D8B404D0016C021EEE
:100F9000D8B0022A01C001F002C002F01200000124
:100FA000606F0F0E95160F0E8316000160518009B9
:100FB000F00B83128D948D905DEC09F08D825DECC9
:100FC00009F08D920F0E831600016039F00BF00BC3
:100FD00083125DEC09F08D825DEC09F08D92F00ECC
:100FE000951212000001606F0F0E95160F0E8316FA
:100FF00000016051F00B83128D808D945DEC09F03F
:101000008D825DEC09F08D920F0E83160001603920
:10101000F00BF00B83125DEC09F08D825DEC09F0B2
:101020008D92F00E951212000001606F0F0E951652
:101030000F0E831600016051F00B83128D948D907A
:101040005DEC09F08D825DEC09F08D920F0E831638
:1010500000016039F00BF00B83125DEC09F08D821A
:101060005DEC09F08D92F00E95121200016E0F0EDC
:1010700095160F0E831601508009F00B83128D9484
:101080008D9062EC09F08D8262EC09F08D920F0E6A
:1010900083160138F00BF00B831262EC09F08D829D
:1010A00062EC09F08D92F00E95121200016E0F0E97
:1010B00095160F0E83160150F00B83128D948D90B0
:1010C00062EC09F08D8262EC09F08D920F0E8316AE
:1010D0000138F00BF00B831262EC09F08D8262ECA8
:1010E00009F08D92F00E95121200016E0F0E9516FA
:1010F0000F0E83160150F00B83128D808D9462ECDD
:1011000009F08D8262EC09F08D920F0E8316013882
:10111000F00BF00B831262EC09F08D8262EC09F0A7
:101120008D92F00E951212008D848D905DEC09F079
:101130008D825DEC09F083AE0AD08D925DEC09F0F2
:101140008D825DEC09F08D928D94010E12008D92CE
:101150005DEC09F08D825DEC09F08D928D94000EAE
:1011600012008D848D9062EC09F08D8262EC09F0A2
:1011700083AE0AD08D9262EC09F08D8262EC09F0A8
:101180008D928D94010E12008D9262EC09F08D8289
:1011900062EC09F08D928D94000E1200096E09C068
:1011A00001F0026A000E046E0A0E036E55EC07F0A1
:1011B0000150300F75EC08F009C001F0026A000E12
:1011C000046E0A0E036E97EC07F00150300F75ECB9
:1011D00008F0120010D094EC08F00009D8A4FBD756
:1011E00061C0F6FF62C0F7FF0800F550F2EC07F0AF
:1011F0000001614B622B61C0F6FF62C0F7FF08007F
:10120000F5500009D8B41200E6D70FD0B1EC08F0C1
:101210000009D8A4FBD702C0F6FF03C0F7FF0800FF
:10122000F55075EC08F0024A032A02C0F6FF03C02D
:10123000F7FF0800F5500009D8B41200E7D7CE0E2A
:10124000F66E120EF76E000EF86E00EE36F010EE2F
:1012500004F00900F5CFEEFFE550E150FAE100019E
:10126000656B3A903A92000EF86E000133EF06F08B
:10127000210E0001606F760EE82EFED7602FFCD79E
:1012800000F01200620E0001606F650EE82EFED7BE
:10129000602FFCD700D01200210E016E760EE82ED2
:1012A000FED7012EFCD700D01200620E016E660E32
:1012B000E82EFED7012EFCD71200210EE82EFED715
:1012C00000F01200210EE82EFED700F012000132CD
:0212D0003B17CA
:020000040020DA
:08000000FFFFFFFFFFFFFFFF00
:020000040030CA
:0E000000000C1F13FF8181FF0FC00FE00F40A7
:00000001FF
