:04000000FEEF3FF0E0
:10080000003F065B4F666D7D077F670203050700AB
:10081000116A106A010EF66E20EE02F0090E090050
:10082000F5CFDEFFE806FBE20B0EF66E0900F5CF12
:100830000CF00900F5CF0DF00900F5CF0EF00A001D
:10084000F5CF0FF0070E936E956A926A9690969484
:100850000F0EC16EF19E0C50020FD96EDA6ADF5096
:100860008C6E896A8D908D9411500C0FD96EDA6A56
:10087000DF50016E0150020FD96EDA6ADF508C6EC4
:10088000899A89948D908D941050D8A44AEF04F0E1
:100890004CEF04F04FEF04F0898A67EF04F0100486
:1008A000D8A455EF04F057EF04F05AEF04F0898410
:1008B00067EF04F0020E1018D8A461EF04F063EFA4
:1008C00004F066EF04F08D8067EF04F08D8481B250
:1008D0006CEF04F06EEF04F091EF04F0A30E016EE4
:1008E000550EE82EFED7012EFCD7000081B27BEF1B
:1008F00004F07DEF04F091EF04F0030E1118D8A47A
:1009000084EF04F086EF04F089EF04F0116A8AEFB7
:1009100004F0112A81A28FEF04F091EF04F08AEF26
:1009200004F081B496EF04F098EF04F0BBEF04F00C
:10093000A30E016E550EE82EFED7012EFCD7000047
:1009400081B4A5EF04F0A7EF04F0BBEF04F0115061
:10095000D8A4ADEF04F0AFEF04F0B3EF04F0030E52
:10096000116EB4EF04F0110681A4B9EF04F0BBEFEF
:1009700004F0B4EF04F081B0C0EF04F0C2EF04F073
:1009800034EF04F0A30E016E550EE82EFED7012EB3
:10099000FCD7000081B0CFEF04F0D1EF04F034EFCA
:1009A00004F0030E1018D8A4D8EF04F0DAEF04F026
:1009B000DDEF04F0106ADEEF04F0102A81A0E3EF0F
:1009C00004F0E5EF04F0DEEF04F034EF04F0FEEFA6
:1009D0003FF0000EF86E080EF76E000108EF04F00D
:047FFC00E9EF04F0B5
:020000040020DA
:08000000FFFFFFFFFFFFFFFF00
:020000040030CA
:0E000000000C1F1EFF8181FF0FC00FE00F409C
:00000001FF
