:0400000013EF00F00A
:060008000182F4ED06F098
:100018000180E0CF02F002C0E0FF0190100062EF23
:0200280008F0DE
:100800000044433A200025202000256400000E50BB
:10081000D96EDA6ADFCFF6FF0800F550250AD8A4B2
:1008200014EF04F016EF04F0C8EF04F00E50D96E88
:10083000DA6ADF2A526A000E516E51C057F05368CF
:1008400054680E50D96EDA6ADF50126E12C0F6FF8D
:100850000800F550640AD8B430EF04F032EF04F029
:100860003EEF04F012C0F6FF0800F550690AD8A464
:100870003CEF04F03EEF04F0C2EF04F00F50D96EED
:10088000DA6A020EDF26DF5CD96EDA6ADECF13F099
:10089000DECF14F00E50D96EDA6A1228DF6E200E09
:1008A000176E14BE56EF04F059EF04F0010E5AEF24
:1008B00004F0000E116E17061750310FD96EDA6A68
:1008C00013C003F014C004F0066A0A0E056E0FECA4
:1008D00006F003C009F004C00AF030EC08F009503B
:1008E000300FDF6E13C003F014C004F0066A0A0E66
:1008F000056EAFEC05F003C013F004C014F0135004
:100900001410D8B486EF04F088EF04F090EF04F0F0
:100910001750D8A48EEF04F090EF04F05BEF04F0D2
:100920001750D8B496EF04F098EF04F0B7EF04F046
:100930001150D8B49EEF04F0A0EF04F0B7EF04F02C
:1009400017061750310FD96EDA6A2D0EDF6EB7EF2A
:1009500004F01750310FD96EDA6ADF50106E105064
:10096000036E046A0DC005F066EC06F0172A200E2F
:100970001718D8A4BEEF04F0C0EF04F0A9EF04F0FC
:10098000D7EF04F00E50D96EDA6ADF2AD7EF04F001
:100990000E50D96EDA6ADFCFF6FF0800F550036E0D
:1009A000046A0DC005F066EC06F0C2EF04F0120018
:1009B000046E0F0E83160F0E9516969496909692CF
:1009C0008D948D908D927AEC08F0300EF5EC07F056
:1009D00071EC08F071EC08F0300EF5EC07F071ECFA
:1009E00008F071EC08F0320EF5EC07F054EC07F06B
:1009F0000009D8A4FEEF04F000EF05F0F6EF04F0D4
:100A000054EC07F00009D8A408EF05F00AEF05F050
:100A100000EF05F00450F5EC07F054EC07F0000986
:100A2000D8A415EF05F017EF05F00DEF05F0080E4F
:100A3000F5EC07F054EC07F00009D8A422EF05F01C
:100A400024EF05F01AEF05F00F0EF5EC07F054EC6B
:100A500007F00009D8A42FEF05F031EF05F027EFDC
:100A600005F0010EF5EC07F054EC07F00009D8A4EE
:100A70003CEF05F03EEF05F034EF05F0040EF5EC29
:100A800007F054EC07F00009D8A449EF05F04BEF4C
:100A900005F041EF05F0800E97EC07F01200060E0E
:100AA000936E956A966A94928B92F19E280ED8EC7A
:100AB00004F0010EF5EC07F0680E2C6EE40EE82E43
:100AC000FED72C2EFCD700D0050ECA6EC70ECB6EFB
:100AD0000C0EBA6E800EBB6EBA98BA9AF086F09081
:100AE000F088F092F18AF188D08EF28EF28C0C0EA2
:100AF000F5EC07F055C003F056C004F02BEC07F0FE
:100B000055C003F056C004F0066A0A0E056EBBEC31
:100B100006F00350306E2D0E1C6E0A0E1D6E30C096
:100B20001EF01F6A4AEC08F0800EF5EC07F0010E8B
:100B3000046E77EC07F02D0E046EB7EC07F0060E8E
:100B4000046E77EC07F0E40E2C6E440EE82EFED710
:100B50002C2EFCD700D07AEF05F013EF00F0086AD6
:100B600006BEB7EF05F0B5EF05F0BDEF05F0056C7B
:100B7000061ED8B0062A010E086E04BEC4EF05F0AA
:100B8000C2EF05F0CAEF05F0036C041ED8B0042ACA
:100B9000010E081A0A6A000E096E05500610D8B434
:100BA000D4EF05F0D6EF05F0FEEF05F0010E076E6D
:100BB000DEEF05F0D89005360636072A06AEE3EFDD
:100BC00005F0E5EF05F0DAEF05F0D89009360A36C2
:100BD0000550035C06500458D8A0F1EF05F0F3EF80
:100BE00005F0F8EF05F00550035E0650045A098041
:100BF000D89006320532072EE5EF05F00850D8B43C
:100C000004EF06F006EF06F00AEF06F0096C0A1E84
:100C1000D8B00A2A09C003F00AC004F01200086A1A
:100C200004BE17EF06F015EF06F01DEF06F0036C9B
:100C3000041ED8B0042A010E086E06BE24EF06F08A
:100C400022EF06F028EF06F0056C061ED8B0062A43
:100C500005500610D8B42FEF06F031EF06F055EF2F
:100C600006F0010E076E39EF06F0D890053606360D
:100C7000072A06AE3EEF06F040EF06F035EF06F02D
:100C80000550035C06500458D8A049EF06F04BEF1E
:100C900006F04FEF06F00550035E0650045AD89058
:100CA00006320532072E40EF06F00850D8B45BEF4D
:100CB00006F05DEF06F061EF06F0036C041ED8B09D
:100CC000042A03C003F004C004F012000550D8B495
:100CD0006CEF06F06EEF06F076EF06F00550D8A444
:100CE00074EF06F076EF06F07BEF06F0035087EC2A
:100CF00008F0BAEF06F00550D96EDA6A090ED92667
:100D0000DE50DE10D8B487EF06F089EF06F0A2EFD0
:100D100006F00550D96EDA6A090ED9260550E16E43
:100D2000E26A020EE126DE50E65CE650800A0A6EB8
:100D3000DE50800A0A58D8B0A0EF06F0A2EF06F005
:100D4000BAEF06F00550D96EDA6A020ED926DF50E6
:100D5000066E0550D96EDA6ADF500624D96EDA6A5B
:100D600003C0DFFF0550D96EDA6A020ED926DE2AEB
:100D7000000EDD221200086A000E076E05500610F4
:100D8000D8B4C5EF06F0C7EF06F0EFEF06F0010E9E
:100D9000096ECFEF06F0D89005360636092A06AE62
:100DA000D4EF06F0D6EF06F0CBEF06F0D89007367A
:100DB00008360550035C06500458D8A0E2EF06F050
:100DC000E4EF06F0E9EF06F00550035E0650045A22
:100DD0000780D89006320532092ED6EF06F007C0FC
:100DE00003F008C004F012000600F0A0FAEF06F0CD
:100DF000FCEF06F00DEF07F0330E5526000E5622DD
:100E0000040E565CD8A007EF07F009EF07F00CEFCF
:100E100007F0030E566E5568F090F0A212EF07F03F
:100E200014EF07F029EF07F0565009E1330E555C37
:100E3000D8A01DEF07F01FEF07F025EF07F0330EE6
:100E4000555E000E565A28EF07F0566A000E556E92
:100E5000F0920192110003C005F004C006F0D89092
:100E600006320532D890063205320550BB6E03C0FB
:100E700005F0010E0516053ABA500518EF0B0518D6
:100E8000BA6ED8900430056E0330036E05C004F0CE
:100E900003C005F0010E0516053A0546BA500518BF
:100EA000DF0B0518BA6E12008D848D9082EC08F06D
:100EB0008D8282EC08F083AE60EF07F062EF07F0FE
:100EC0006DEF07F08D9282EC08F08D8282EC08F0D5
:100ED0008D928D94010E76EF07F08D9282EC08F0E2
:100EE0008D8282EC08F08D928D94000E12008AEFB4
:100EF00007F054EC07F00009D8A481EF07F083EF66
:100F000007F079EF07F004C0F6FF0800F550D6ECC3
:100F100007F0042A04C0F6FF0800F5500009D8A421
:100F200094EF07F096EF07F079EF07F01200036EE9
:100F30000F0E95160F0E831603508009F00B8312C7
:100F40008D948D9082EC08F08D8282EC08F08D9269
:100F50000F0E83160338F00BF00B831282EC08F0AF
:100F60008D8282EC08F08D92F00E95121200CAEF7D
:100F700007F054EC07F00009D8A4C1EF07F0C3EF65
:100F800007F0B9EF07F00450D96EDA6ADF50D6ECFB
:100F900007F0042A0450D96EDA6ADF50D8A4D3EFE0
:100FA00007F0D5EF07F0B9EF07F01200036E0F0E50
:100FB00095160F0E83160350F00B83128D808D94BF
:100FC00082EC08F08D8282EC08F08D920F0E831671
:100FD0000338F00BF00B831282EC08F08D8282EC68
:100FE00008F08D92F00E95121200036E0F0E9516FA
:100FF0000F0E83160350F00B83128D948D9082ECAC
:1010000008F08D8282EC08F08D920F0E8316033863
:10101000F00BF00B831282EC08F08D8282EC08F06A
:101020008D92F00E9512120019C01BF020EF08F0FF
:1010300018C00DF01B0E0E6E1AC00FF007EC04F076
:101040001BC0F6FF0800F5500009D8A42AEF08F0ED
:101050002CEF08F018EF08F0196A000E186E120055
:101060000ABE35EF08F037EF08F03DEF08F009C091
:1010700009F00AC00AF049EF08F009C00BF00AC0F5
:101080000CF00B1E0C1E0B4A0C2A0BC009F00CC0F6
:101090000AF012001E0E206E1CC021F0246A000E01
:1010A000236E2B6A000E2A6E210E186E1DC019F0D9
:1010B000200E1A6E14EC08F01C502324D96EDA6A44
:1010C000DF6A120000EE31F0270EEE6AE806FDE15D
:1010D00001900192000EF86E080EF76E00014FEFBE
:1010E00005F0210E036E760EE82EFED7032EFCD7F8
:1010F00000D01200620E036E660EE82EFED7032E9D
:10110000FCD71200210EE82EFED7000012001200BC
:020000040020DA
:08000000FFFFFFFFFFFFFFFF00
:020000040030CA
:0E000000000C1F1EFF8181FF0FC00FE00F409C
:00000001FF
